{
    "contractName": "NFTCollectible",
    "abi": [
        {
            "inputs": [
                {
                    "internalType": "string",
                    "name": "baseURI",
                    "type": "string"
                }
            ],
            "stateMutability": "nonpayable",
            "type": "constructor"
        },
        {
            "anonymous": false,
            "inputs": [
                {
                    "indexed": true,
                    "internalType": "address",
                    "name": "owner",
                    "type": "address"
                },
                {
                    "indexed": true,
                    "internalType": "address",
                    "name": "approved",
                    "type": "address"
                },
                {
                    "indexed": true,
                    "internalType": "uint256",
                    "name": "tokenId",
                    "type": "uint256"
                }
            ],
            "name": "Approval",
            "type": "event"
        },
        {
            "anonymous": false,
            "inputs": [
                {
                    "indexed": true,
                    "internalType": "address",
                    "name": "owner",
                    "type": "address"
                },
                {
                    "indexed": true,
                    "internalType": "address",
                    "name": "operator",
                    "type": "address"
                },
                {
                    "indexed": false,
                    "internalType": "bool",
                    "name": "approved",
                    "type": "bool"
                }
            ],
            "name": "ApprovalForAll",
            "type": "event"
        },
        {
            "anonymous": false,
            "inputs": [
                {
                    "indexed": true,
                    "internalType": "address",
                    "name": "previousOwner",
                    "type": "address"
                },
                {
                    "indexed": true,
                    "internalType": "address",
                    "name": "newOwner",
                    "type": "address"
                }
            ],
            "name": "OwnershipTransferred",
            "type": "event"
        },
        {
            "anonymous": false,
            "inputs": [
                {
                    "indexed": true,
                    "internalType": "address",
                    "name": "from",
                    "type": "address"
                },
                {
                    "indexed": true,
                    "internalType": "address",
                    "name": "to",
                    "type": "address"
                },
                {
                    "indexed": true,
                    "internalType": "uint256",
                    "name": "tokenId",
                    "type": "uint256"
                }
            ],
            "name": "Transfer",
            "type": "event"
        },
        {
            "inputs": [],
            "name": "MAX_PER_MINT",
            "outputs": [
                {
                    "internalType": "uint256",
                    "name": "",
                    "type": "uint256"
                }
            ],
            "stateMutability": "view",
            "type": "function"
        },
        {
            "inputs": [],
            "name": "MAX_SUPPLY",
            "outputs": [
                {
                    "internalType": "uint256",
                    "name": "",
                    "type": "uint256"
                }
            ],
            "stateMutability": "view",
            "type": "function"
        },
        {
            "inputs": [],
            "name": "PRICE",
            "outputs": [
                {
                    "internalType": "uint256",
                    "name": "",
                    "type": "uint256"
                }
            ],
            "stateMutability": "view",
            "type": "function"
        },
        {
            "inputs": [],
            "name": "ROUND_NUMBER",
            "outputs": [
                {
                    "internalType": "uint256",
                    "name": "",
                    "type": "uint256"
                }
            ],
            "stateMutability": "view",
            "type": "function"
        },
        {
            "inputs": [
                {
                    "internalType": "address",
                    "name": "to",
                    "type": "address"
                },
                {
                    "internalType": "uint256",
                    "name": "tokenId",
                    "type": "uint256"
                }
            ],
            "name": "approve",
            "outputs": [],
            "stateMutability": "nonpayable",
            "type": "function"
        },
        {
            "inputs": [
                {
                    "internalType": "address",
                    "name": "owner",
                    "type": "address"
                }
            ],
            "name": "balanceOf",
            "outputs": [
                {
                    "internalType": "uint256",
                    "name": "",
                    "type": "uint256"
                }
            ],
            "stateMutability": "view",
            "type": "function"
        },
        {
            "inputs": [],
            "name": "baseTokenURI",
            "outputs": [
                {
                    "internalType": "string",
                    "name": "",
                    "type": "string"
                }
            ],
            "stateMutability": "view",
            "type": "function"
        },
        {
            "inputs": [
                {
                    "internalType": "uint256",
                    "name": "tokenId",
                    "type": "uint256"
                }
            ],
            "name": "getApproved",
            "outputs": [
                {
                    "internalType": "address",
                    "name": "",
                    "type": "address"
                }
            ],
            "stateMutability": "view",
            "type": "function"
        },
        {
            "inputs": [
                {
                    "internalType": "address",
                    "name": "owner",
                    "type": "address"
                },
                {
                    "internalType": "address",
                    "name": "operator",
                    "type": "address"
                }
            ],
            "name": "isApprovedForAll",
            "outputs": [
                {
                    "internalType": "bool",
                    "name": "",
                    "type": "bool"
                }
            ],
            "stateMutability": "view",
            "type": "function"
        },
        {
            "inputs": [],
            "name": "isSale",
            "outputs": [
                {
                    "internalType": "bool",
                    "name": "",
                    "type": "bool"
                }
            ],
            "stateMutability": "view",
            "type": "function"
        },
        {
            "inputs": [],
            "name": "kakaAddr",
            "outputs": [
                {
                    "internalType": "address",
                    "name": "",
                    "type": "address"
                }
            ],
            "stateMutability": "view",
            "type": "function"
        },
        {
            "inputs": [
                {
                    "internalType": "uint256",
                    "name": "_count",
                    "type": "uint256"
                }
            ],
            "name": "mintNFTs",
            "outputs": [],
            "stateMutability": "nonpayable",
            "type": "function"
        },
        {
            "inputs": [],
            "name": "name",
            "outputs": [
                {
                    "internalType": "string",
                    "name": "",
                    "type": "string"
                }
            ],
            "stateMutability": "view",
            "type": "function"
        },
        {
            "inputs": [],
            "name": "owner",
            "outputs": [
                {
                    "internalType": "address",
                    "name": "",
                    "type": "address"
                }
            ],
            "stateMutability": "view",
            "type": "function"
        },
        {
            "inputs": [
                {
                    "internalType": "uint256",
                    "name": "tokenId",
                    "type": "uint256"
                }
            ],
            "name": "ownerOf",
            "outputs": [
                {
                    "internalType": "address",
                    "name": "",
                    "type": "address"
                }
            ],
            "stateMutability": "view",
            "type": "function"
        },
        {
            "inputs": [],
            "name": "renounceOwnership",
            "outputs": [],
            "stateMutability": "nonpayable",
            "type": "function"
        },
        {
            "inputs": [],
            "name": "reserveNFTs",
            "outputs": [],
            "stateMutability": "nonpayable",
            "type": "function"
        },
        {
            "inputs": [
                {
                    "internalType": "address",
                    "name": "from",
                    "type": "address"
                },
                {
                    "internalType": "address",
                    "name": "to",
                    "type": "address"
                },
                {
                    "internalType": "uint256",
                    "name": "tokenId",
                    "type": "uint256"
                }
            ],
            "name": "safeTransferFrom",
            "outputs": [],
            "stateMutability": "nonpayable",
            "type": "function"
        },
        {
            "inputs": [
                {
                    "internalType": "address",
                    "name": "from",
                    "type": "address"
                },
                {
                    "internalType": "address",
                    "name": "to",
                    "type": "address"
                },
                {
                    "internalType": "uint256",
                    "name": "tokenId",
                    "type": "uint256"
                },
                {
                    "internalType": "bytes",
                    "name": "_data",
                    "type": "bytes"
                }
            ],
            "name": "safeTransferFrom",
            "outputs": [],
            "stateMutability": "nonpayable",
            "type": "function"
        },
        {
            "inputs": [
                {
                    "internalType": "address",
                    "name": "operator",
                    "type": "address"
                },
                {
                    "internalType": "bool",
                    "name": "approved",
                    "type": "bool"
                }
            ],
            "name": "setApprovalForAll",
            "outputs": [],
            "stateMutability": "nonpayable",
            "type": "function"
        },
        {
            "inputs": [
                {
                    "internalType": "string",
                    "name": "_baseTokenURI",
                    "type": "string"
                }
            ],
            "name": "setBaseURI",
            "outputs": [],
            "stateMutability": "nonpayable",
            "type": "function"
        },
        {
            "inputs": [
                {
                    "internalType": "address",
                    "name": "_kakaAddr",
                    "type": "address"
                }
            ],
            "name": "setKakaTokenAddr",
            "outputs": [],
            "stateMutability": "nonpayable",
            "type": "function"
        },
        {
            "inputs": [
                {
                    "internalType": "uint256",
                    "name": "_number",
                    "type": "uint256"
                }
            ],
            "name": "setRoundNumber",
            "outputs": [],
            "stateMutability": "nonpayable",
            "type": "function"
        },
        {
            "inputs": [],
            "name": "startSale",
            "outputs": [],
            "stateMutability": "nonpayable",
            "type": "function"
        },
        {
            "inputs": [],
            "name": "stopSale",
            "outputs": [],
            "stateMutability": "nonpayable",
            "type": "function"
        },
        {
            "inputs": [
                {
                    "internalType": "bytes4",
                    "name": "interfaceId",
                    "type": "bytes4"
                }
            ],
            "name": "supportsInterface",
            "outputs": [
                {
                    "internalType": "bool",
                    "name": "",
                    "type": "bool"
                }
            ],
            "stateMutability": "view",
            "type": "function"
        },
        {
            "inputs": [],
            "name": "symbol",
            "outputs": [
                {
                    "internalType": "string",
                    "name": "",
                    "type": "string"
                }
            ],
            "stateMutability": "view",
            "type": "function"
        },
        {
            "inputs": [
                {
                    "internalType": "uint256",
                    "name": "index",
                    "type": "uint256"
                }
            ],
            "name": "tokenByIndex",
            "outputs": [
                {
                    "internalType": "uint256",
                    "name": "",
                    "type": "uint256"
                }
            ],
            "stateMutability": "view",
            "type": "function"
        },
        {
            "inputs": [
                {
                    "internalType": "address",
                    "name": "owner",
                    "type": "address"
                },
                {
                    "internalType": "uint256",
                    "name": "index",
                    "type": "uint256"
                }
            ],
            "name": "tokenOfOwnerByIndex",
            "outputs": [
                {
                    "internalType": "uint256",
                    "name": "",
                    "type": "uint256"
                }
            ],
            "stateMutability": "view",
            "type": "function"
        },
        {
            "inputs": [
                {
                    "internalType": "uint256",
                    "name": "tokenId",
                    "type": "uint256"
                }
            ],
            "name": "tokenURI",
            "outputs": [
                {
                    "internalType": "string",
                    "name": "",
                    "type": "string"
                }
            ],
            "stateMutability": "view",
            "type": "function"
        },
        {
            "inputs": [
                {
                    "internalType": "address",
                    "name": "_owner",
                    "type": "address"
                }
            ],
            "name": "tokensOfOwner",
            "outputs": [
                {
                    "internalType": "uint256[]",
                    "name": "",
                    "type": "uint256[]"
                }
            ],
            "stateMutability": "view",
            "type": "function"
        },
        {
            "inputs": [],
            "name": "totalSupply",
            "outputs": [
                {
                    "internalType": "uint256",
                    "name": "",
                    "type": "uint256"
                }
            ],
            "stateMutability": "view",
            "type": "function"
        },
        {
            "inputs": [
                {
                    "internalType": "address",
                    "name": "from",
                    "type": "address"
                },
                {
                    "internalType": "address",
                    "name": "to",
                    "type": "address"
                },
                {
                    "internalType": "uint256",
                    "name": "tokenId",
                    "type": "uint256"
                }
            ],
            "name": "transferFrom",
            "outputs": [],
            "stateMutability": "nonpayable",
            "type": "function"
        },
        {
            "inputs": [
                {
                    "internalType": "address",
                    "name": "newOwner",
                    "type": "address"
                }
            ],
            "name": "transferOwnership",
            "outputs": [],
            "stateMutability": "nonpayable",
            "type": "function"
        },
        {
            "inputs": [],
            "name": "withdraw",
            "outputs": [],
            "stateMutability": "payable",
            "type": "function"
        }
    ],
    "bytecode": "6080604052600a600d553480156200001657600080fd5b50604051620029d9380380620029d983398101604081905262000039916200025b565b604080518082018252600f81526e4e465420436f6c6c65637469626c6560881b6020808301918252835180850190945260048452634e46544360e01b9084015281519192916200008c916000916200019f565b508051620000a29060019060208401906200019f565b505050620000bf620000b9620000d160201b60201c565b620000d5565b620000ca8162000127565b5062000373565b3390565b600a80546001600160a01b038381166001600160a01b0319831681179093556040519116919082907f8be0079c531659141344cd1fd0a4f28419497f9722a3daafe3b4186f6b6457e090600090a35050565b600a546001600160a01b03163314620001865760405162461bcd60e51b815260206004820181905260248201527f4f776e61626c653a2063616c6c6572206973206e6f7420746865206f776e6572604482015260640160405180910390fd5b80516200019b90600e9060208401906200019f565b5050565b828054620001ad9062000337565b90600052602060002090601f016020900481019282620001d157600085556200021c565b82601f10620001ec57805160ff19168380011785556200021c565b828001600101855582156200021c579182015b828111156200021c578251825591602001919060010190620001ff565b506200022a9291506200022e565b5090565b5b808211156200022a57600081556001016200022f565b634e487b7160e01b600052604160045260246000fd5b600060208083850312156200026f57600080fd5b82516001600160401b03808211156200028757600080fd5b818501915085601f8301126200029c57600080fd5b815181811115620002b157620002b162000245565b604051601f8201601f19908116603f01168101908382118183101715620002dc57620002dc62000245565b816040528281528886848701011115620002f557600080fd5b600093505b82841015620003195784840186015181850187015292850192620002fa565b828411156200032b5760008684830101525b98975050505050505050565b600181811c908216806200034c57607f821691505b6020821081036200036d57634e487b7160e01b600052602260045260246000fd5b50919050565b61265680620003836000396000f3fe6080604052600436106102045760003560e01c806370a0823111610118578063bd8f9e72116100a0578063e36b0b371161006f578063e36b0b3714610596578063e985e9c5146105ab578063f2fde38b146105f4578063f8c1c18614610614578063fa4bb1651461063557600080fd5b8063bd8f9e7214610521578063c87b56dd14610541578063d547cfb714610561578063e33b4b321461057657600080fd5b80638da5cb5b116100e75780638da5cb5b1461049957806395d89b41146104b7578063a22cb465146104cc578063b66a0e5d146104ec578063b88d4fde1461050157600080fd5b806370a082311461041a578063715018a61461043a5780638462151c1461044f5780638d859f3e1461047c57600080fd5b80632f745c591161019b57806342842e0e1161016a57806342842e0e146103845780634925044a146103a45780634f6ccce7146103ba57806355f804b3146103da5780636352211e146103fa57600080fd5b80632f745c591461032757806332cb6b0c146103475780633b4b13811461035c5780633ccfd60b1461037c57600080fd5b806309d42b30116101d757806309d42b30146102ba578063144100c7146102dd57806318160ddd146102f257806323b872dd1461030757600080fd5b806301ffc9a71461020957806306fdde031461023e578063081812fc14610260578063095ea7b314610298575b600080fd5b34801561021557600080fd5b5061022961022436600461201d565b610655565b60405190151581526020015b60405180910390f35b34801561024a57600080fd5b50610253610680565b6040516102359190612092565b34801561026c57600080fd5b5061028061027b3660046120a5565b610712565b6040516001600160a01b039091168152602001610235565b3480156102a457600080fd5b506102b86102b33660046120da565b6107ac565b005b3480156102c657600080fd5b506102cf600581565b604051908152602001610235565b3480156102e957600080fd5b506102b86108c1565b3480156102fe57600080fd5b506008546102cf565b34801561031357600080fd5b506102b8610322366004612104565b61097c565b34801561033357600080fd5b506102cf6103423660046120da565b6109ad565b34801561035357600080fd5b506102cf606481565b34801561036857600080fd5b506102b86103773660046120a5565b610a43565b6102b8610d1c565b34801561039057600080fd5b506102b861039f366004612104565b610e1f565b3480156103b057600080fd5b506102cf600d5481565b3480156103c657600080fd5b506102cf6103d53660046120a5565b610e3a565b3480156103e657600080fd5b506102b86103f53660046121cc565b610ecd565b34801561040657600080fd5b506102806104153660046120a5565b610f0a565b34801561042657600080fd5b506102cf610435366004612215565b610f81565b34801561044657600080fd5b506102b8611008565b34801561045b57600080fd5b5061046f61046a366004612215565b61103e565b6040516102359190612230565b34801561048857600080fd5b506102cf685150ae84a8cdf0000081565b3480156104a557600080fd5b50600a546001600160a01b0316610280565b3480156104c357600080fd5b506102536110e0565b3480156104d857600080fd5b506102b86104e7366004612282565b6110ef565b3480156104f857600080fd5b506102b86111b3565b34801561050d57600080fd5b506102b861051c3660046122b9565b611209565b34801561052d57600080fd5b506102b861053c366004612215565b611241565b34801561054d57600080fd5b5061025361055c3660046120a5565b61128d565b34801561056d57600080fd5b50610253611368565b34801561058257600080fd5b50600c54610280906001600160a01b031681565b3480156105a257600080fd5b506102b86113f6565b3480156105b757600080fd5b506102296105c6366004612335565b6001600160a01b03918216600090815260056020908152604080832093909416825291909152205460ff1690565b34801561060057600080fd5b506102b861060f366004612215565b611479565b34801561062057600080fd5b50600c5461022990600160a01b900460ff1681565b34801561064157600080fd5b506102b86106503660046120a5565b611514565b60006001600160e01b0319821663780e9d6360e01b148061067a575061067a82611543565b92915050565b60606000805461068f90612368565b80601f01602080910402602001604051908101604052809291908181526020018280546106bb90612368565b80156107085780601f106106dd57610100808354040283529160200191610708565b820191906000526020600020905b8154815290600101906020018083116106eb57829003601f168201915b5050505050905090565b6000818152600260205260408120546001600160a01b03166107905760405162461bcd60e51b815260206004820152602c60248201527f4552433732313a20617070726f76656420717565727920666f72206e6f6e657860448201526b34b9ba32b73a103a37b5b2b760a11b60648201526084015b60405180910390fd5b506000908152600460205260409020546001600160a01b031690565b60006107b782610f0a565b9050806001600160a01b0316836001600160a01b0316036108245760405162461bcd60e51b815260206004820152602160248201527f4552433732313a20617070726f76616c20746f2063757272656e74206f776e656044820152603960f91b6064820152608401610787565b336001600160a01b0382161480610840575061084081336105c6565b6108b25760405162461bcd60e51b815260206004820152603860248201527f4552433732313a20617070726f76652063616c6c6572206973206e6f74206f7760448201527f6e6572206e6f7220617070726f76656420666f7220616c6c00000000000000006064820152608401610787565b6108bc8383611593565b505050565b600a546001600160a01b031633146108eb5760405162461bcd60e51b8152600401610787906123a2565b60006108f6600b5490565b9050606461090582600a611601565b106109525760405162461bcd60e51b815260206004820152601f60248201527f4e6f7420656e6f756768204e465473206c65667420746f2072657365727665006044820152606401610787565b60005b600a8110156109785761096661160d565b80610970816123ed565b915050610955565b5050565b6109863382611647565b6109a25760405162461bcd60e51b815260040161078790612406565b6108bc83838361173e565b60006109b883610f81565b8210610a1a5760405162461bcd60e51b815260206004820152602b60248201527f455243373231456e756d657261626c653a206f776e657220696e646578206f7560448201526a74206f6620626f756e647360a81b6064820152608401610787565b506001600160a01b03919091166000908152600660209081526040808320938352929052205490565b600c54600160a01b900460ff16610a8d5760405162461bcd60e51b815260206004820152600e60248201526d6e6f742073616c6520737461676560901b6044820152606401610787565b6000610a98600b5490565b90506000600d5411610ade5760405162461bcd60e51b815260206004820152600f60248201526e139bdd08195b9bdd59da081b5a5b9d608a1b6044820152606401610787565b6064610aea8284611601565b1115610b305760405162461bcd60e51b81526020600482015260156024820152744e6f7420656e6f756768204e465473206c6566742160581b6044820152606401610787565b600082118015610b41575060058211155b610b9b5760405162461bcd60e51b815260206004820152602560248201527f43616e6e6f74206d696e7420737065636966696564206e756d626572206f662060448201526427232a399760d91b6064820152608401610787565b6000610bb0685150ae84a8cdf00000846118e9565b600c546040516370a0823160e01b81523360048201529192506000916001600160a01b03909116906370a0823190602401602060405180830381865afa158015610bfe573d6000803e3d6000fd5b505050506040513d601f19601f82011682018060405250810190610c229190612457565b905081811015610c745760405162461bcd60e51b815260206004820152601d60248201527f4e6f7420656e6f756768204b616b6120746f206d696e74204e4654732e0000006044820152606401610787565b600c546040516323b872dd60e01b8152336004820152306024820152604481018490526001600160a01b03909116906323b872dd906064016020604051808303816000875af1158015610ccb573d6000803e3d6000fd5b505050506040513d601f19601f82011682018060405250810190610cef9190612470565b5060005b84811015610d1557610d0361160d565b80610d0d816123ed565b915050610cf3565b5050505050565b600a546001600160a01b03163314610d465760405162461bcd60e51b8152600401610787906123a2565b4780610d945760405162461bcd60e51b815260206004820152601960248201527f4e6f206574686572206c65667420746f207769746864726177000000000000006044820152606401610787565b604051600090339083908381818185875af1925050503d8060008114610dd6576040519150601f19603f3d011682016040523d82523d6000602084013e610ddb565b606091505b50509050806109785760405162461bcd60e51b815260206004820152601060248201526f2a3930b739b332b9103330b4b632b21760811b6044820152606401610787565b6108bc83838360405180602001604052806000815250611209565b6000610e4560085490565b8210610ea85760405162461bcd60e51b815260206004820152602c60248201527f455243373231456e756d657261626c653a20676c6f62616c20696e646578206f60448201526b7574206f6620626f756e647360a01b6064820152608401610787565b60088281548110610ebb57610ebb61248d565b90600052602060002001549050919050565b600a546001600160a01b03163314610ef75760405162461bcd60e51b8152600401610787906123a2565b805161097890600e906020840190611f6e565b6000818152600260205260408120546001600160a01b03168061067a5760405162461bcd60e51b815260206004820152602960248201527f4552433732313a206f776e657220717565727920666f72206e6f6e657869737460448201526832b73a103a37b5b2b760b91b6064820152608401610787565b60006001600160a01b038216610fec5760405162461bcd60e51b815260206004820152602a60248201527f4552433732313a2062616c616e636520717565727920666f7220746865207a65604482015269726f206164647265737360b01b6064820152608401610787565b506001600160a01b031660009081526003602052604090205490565b600a546001600160a01b031633146110325760405162461bcd60e51b8152600401610787906123a2565b61103c60006118f5565b565b6060600061104b83610f81565b905060008167ffffffffffffffff81111561106857611068612140565b604051908082528060200260200182016040528015611091578160200160208202803683370190505b50905060005b828110156110d8576110a985826109ad565b8282815181106110bb576110bb61248d565b6020908102919091010152806110d0816123ed565b915050611097565b509392505050565b60606001805461068f90612368565b336001600160a01b038316036111475760405162461bcd60e51b815260206004820152601960248201527f4552433732313a20617070726f766520746f2063616c6c6572000000000000006044820152606401610787565b3360008181526005602090815260408083206001600160a01b03871680855290835292819020805460ff191686151590811790915590519081529192917f17307eab39ab6107e8899845ad3d59bd9653f200f220920489ca2b5937696c31910160405180910390a35050565b600a546001600160a01b031633146111dd5760405162461bcd60e51b8152600401610787906123a2565b600c54600160a01b900460ff16156111f457600080fd5b600c805460ff60a01b1916600160a01b179055565b6112133383611647565b61122f5760405162461bcd60e51b815260040161078790612406565b61123b84848484611947565b50505050565b600a546001600160a01b0316331461126b5760405162461bcd60e51b8152600401610787906123a2565b600c80546001600160a01b0319166001600160a01b0392909216919091179055565b6000818152600260205260409020546060906001600160a01b031661130c5760405162461bcd60e51b815260206004820152602f60248201527f4552433732314d657461646174613a2055524920717565727920666f72206e6f60448201526e3732bc34b9ba32b73a103a37b5b2b760891b6064820152608401610787565b600061131661197a565b905060008151116113365760405180602001604052806000815250611361565b8061134084611989565b6040516020016113519291906124a3565b6040516020818303038152906040525b9392505050565b600e805461137590612368565b80601f01602080910402602001604051908101604052809291908181526020018280546113a190612368565b80156113ee5780601f106113c3576101008083540402835291602001916113ee565b820191906000526020600020905b8154815290600101906020018083116113d157829003601f168201915b505050505081565b600a546001600160a01b031633146114205760405162461bcd60e51b8152600401610787906123a2565b600c54600160a01b900460ff1661146a5760405162461bcd60e51b815260206004820152600e60248201526d6e6f742073616c6520737461676560901b6044820152606401610787565b600c805460ff60a01b19169055565b600a546001600160a01b031633146114a35760405162461bcd60e51b8152600401610787906123a2565b6001600160a01b0381166115085760405162461bcd60e51b815260206004820152602660248201527f4f776e61626c653a206e6577206f776e657220697320746865207a65726f206160448201526564647265737360d01b6064820152608401610787565b611511816118f5565b50565b600a546001600160a01b0316331461153e5760405162461bcd60e51b8152600401610787906123a2565b600d55565b60006001600160e01b031982166380ac58cd60e01b148061157457506001600160e01b03198216635b5e139f60e01b145b8061067a57506301ffc9a760e01b6001600160e01b031983161461067a565b600081815260046020526040902080546001600160a01b0319166001600160a01b03841690811790915581906115c882610f0a565b6001600160a01b03167f8c5be1e5ebec7d5bd14f71427d1e84f3dd0314c0f7b2291e5b200ac8c7c3b92560405160405180910390a45050565b600061136182846124d2565b6000611618600b5490565b90506116243382611a8a565b611632600b80546001019055565b6001600d5461164191906124ea565b600d5550565b6000818152600260205260408120546001600160a01b03166116c05760405162461bcd60e51b815260206004820152602c60248201527f4552433732313a206f70657261746f7220717565727920666f72206e6f6e657860448201526b34b9ba32b73a103a37b5b2b760a11b6064820152608401610787565b60006116cb83610f0a565b9050806001600160a01b0316846001600160a01b031614806117065750836001600160a01b03166116fb84610712565b6001600160a01b0316145b8061173657506001600160a01b0380821660009081526005602090815260408083209388168352929052205460ff165b949350505050565b826001600160a01b031661175182610f0a565b6001600160a01b0316146117b95760405162461bcd60e51b815260206004820152602960248201527f4552433732313a207472616e73666572206f6620746f6b656e2074686174206960448201526839903737ba1037bbb760b91b6064820152608401610787565b6001600160a01b03821661181b5760405162461bcd60e51b8152602060048201526024808201527f4552433732313a207472616e7366657220746f20746865207a65726f206164646044820152637265737360e01b6064820152608401610787565b611826838383611aa4565b611831600082611593565b6001600160a01b038316600090815260036020526040812080546001929061185a9084906124ea565b90915550506001600160a01b03821660009081526003602052604081208054600192906118889084906124d2565b909155505060008181526002602052604080822080546001600160a01b0319166001600160a01b0386811691821790925591518493918716917fddf252ad1be2c89b69c2b068fc378daa952ba7f163c4a11628f55a4df523b3ef91a4505050565b60006113618284612501565b600a80546001600160a01b038381166001600160a01b0319831681179093556040519116919082907f8be0079c531659141344cd1fd0a4f28419497f9722a3daafe3b4186f6b6457e090600090a35050565b61195284848461173e565b61195e84848484611b5c565b61123b5760405162461bcd60e51b815260040161078790612520565b6060600e805461068f90612368565b6060816000036119b05750506040805180820190915260018152600360fc1b602082015290565b8160005b81156119da57806119c4816123ed565b91506119d39050600a83612588565b91506119b4565b60008167ffffffffffffffff8111156119f5576119f5612140565b6040519080825280601f01601f191660200182016040528015611a1f576020820181803683370190505b5090505b841561173657611a346001836124ea565b9150611a41600a8661259c565b611a4c9060306124d2565b60f81b818381518110611a6157611a6161248d565b60200101906001600160f81b031916908160001a905350611a83600a86612588565b9450611a23565b610978828260405180602001604052806000815250611c5d565b6001600160a01b038316611aff57611afa81600880546000838152600960205260408120829055600182018355919091527ff3f7a9fe364faab93b216da50a3214154f22a0a2b415b23a84c8169e8b636ee30155565b611b22565b816001600160a01b0316836001600160a01b031614611b2257611b228382611c90565b6001600160a01b038216611b39576108bc81611d2d565b826001600160a01b0316826001600160a01b0316146108bc576108bc8282611ddc565b60006001600160a01b0384163b15611c5257604051630a85bd0160e11b81526001600160a01b0385169063150b7a0290611ba09033908990889088906004016125b0565b6020604051808303816000875af1925050508015611bdb575060408051601f3d908101601f19168201909252611bd8918101906125ed565b60015b611c38573d808015611c09576040519150601f19603f3d011682016040523d82523d6000602084013e611c0e565b606091505b508051600003611c305760405162461bcd60e51b815260040161078790612520565b805181602001fd5b6001600160e01b031916630a85bd0160e11b149050611736565b506001949350505050565b611c678383611e20565b611c746000848484611b5c565b6108bc5760405162461bcd60e51b815260040161078790612520565b60006001611c9d84610f81565b611ca791906124ea565b600083815260076020526040902054909150808214611cfa576001600160a01b03841660009081526006602090815260408083208584528252808320548484528184208190558352600790915290208190555b5060009182526007602090815260408084208490556001600160a01b039094168352600681528383209183525290812055565b600854600090611d3f906001906124ea565b60008381526009602052604081205460088054939450909284908110611d6757611d6761248d565b906000526020600020015490508060088381548110611d8857611d8861248d565b6000918252602080832090910192909255828152600990915260408082208490558582528120556008805480611dc057611dc061260a565b6001900381819060005260206000200160009055905550505050565b6000611de783610f81565b6001600160a01b039093166000908152600660209081526040808320868452825280832085905593825260079052919091209190915550565b6001600160a01b038216611e765760405162461bcd60e51b815260206004820181905260248201527f4552433732313a206d696e7420746f20746865207a65726f20616464726573736044820152606401610787565b6000818152600260205260409020546001600160a01b031615611edb5760405162461bcd60e51b815260206004820152601c60248201527f4552433732313a20746f6b656e20616c7265616479206d696e746564000000006044820152606401610787565b611ee760008383611aa4565b6001600160a01b0382166000908152600360205260408120805460019290611f109084906124d2565b909155505060008181526002602052604080822080546001600160a01b0319166001600160a01b03861690811790915590518392907fddf252ad1be2c89b69c2b068fc378daa952ba7f163c4a11628f55a4df523b3ef908290a45050565b828054611f7a90612368565b90600052602060002090601f016020900481019282611f9c5760008555611fe2565b82601f10611fb557805160ff1916838001178555611fe2565b82800160010185558215611fe2579182015b82811115611fe2578251825591602001919060010190611fc7565b50611fee929150611ff2565b5090565b5b80821115611fee5760008155600101611ff3565b6001600160e01b03198116811461151157600080fd5b60006020828403121561202f57600080fd5b813561136181612007565b60005b8381101561205557818101518382015260200161203d565b8381111561123b5750506000910152565b6000815180845261207e81602086016020860161203a565b601f01601f19169290920160200192915050565b6020815260006113616020830184612066565b6000602082840312156120b757600080fd5b5035919050565b80356001600160a01b03811681146120d557600080fd5b919050565b600080604083850312156120ed57600080fd5b6120f6836120be565b946020939093013593505050565b60008060006060848603121561211957600080fd5b612122846120be565b9250612130602085016120be565b9150604084013590509250925092565b634e487b7160e01b600052604160045260246000fd5b600067ffffffffffffffff8084111561217157612171612140565b604051601f8501601f19908116603f0116810190828211818310171561219957612199612140565b816040528093508581528686860111156121b257600080fd5b858560208301376000602087830101525050509392505050565b6000602082840312156121de57600080fd5b813567ffffffffffffffff8111156121f557600080fd5b8201601f8101841361220657600080fd5b61173684823560208401612156565b60006020828403121561222757600080fd5b611361826120be565b6020808252825182820181905260009190848201906040850190845b818110156122685783518352928401929184019160010161224c565b50909695505050505050565b801515811461151157600080fd5b6000806040838503121561229557600080fd5b61229e836120be565b915060208301356122ae81612274565b809150509250929050565b600080600080608085870312156122cf57600080fd5b6122d8856120be565b93506122e6602086016120be565b925060408501359150606085013567ffffffffffffffff81111561230957600080fd5b8501601f8101871361231a57600080fd5b61232987823560208401612156565b91505092959194509250565b6000806040838503121561234857600080fd5b612351836120be565b915061235f602084016120be565b90509250929050565b600181811c9082168061237c57607f821691505b60208210810361239c57634e487b7160e01b600052602260045260246000fd5b50919050565b6020808252818101527f4f776e61626c653a2063616c6c6572206973206e6f7420746865206f776e6572604082015260600190565b634e487b7160e01b600052601160045260246000fd5b6000600182016123ff576123ff6123d7565b5060010190565b60208082526031908201527f4552433732313a207472616e736665722063616c6c6572206973206e6f74206f6040820152701ddb995c881b9bdc88185c1c1c9bdd9959607a1b606082015260800190565b60006020828403121561246957600080fd5b5051919050565b60006020828403121561248257600080fd5b815161136181612274565b634e487b7160e01b600052603260045260246000fd5b600083516124b581846020880161203a565b8351908301906124c981836020880161203a565b01949350505050565b600082198211156124e5576124e56123d7565b500190565b6000828210156124fc576124fc6123d7565b500390565b600081600019048311821515161561251b5761251b6123d7565b500290565b60208082526032908201527f4552433732313a207472616e7366657220746f206e6f6e20455243373231526560408201527131b2b4bb32b91034b6b83632b6b2b73a32b960711b606082015260800190565b634e487b7160e01b600052601260045260246000fd5b60008261259757612597612572565b500490565b6000826125ab576125ab612572565b500690565b6001600160a01b03858116825284166020820152604081018390526080606082018190526000906125e390830184612066565b9695505050505050565b6000602082840312156125ff57600080fd5b815161136181612007565b634e487b7160e01b600052603160045260246000fdfea264697066735822122019a5b50bdd93d8f97d0ce1aa40bb3bb22572fd22a6bd2daadae21e0c2e5b05bb64736f6c634300080d0033",
    "sourcePath": "f:/kaka-truffle/contracts/kaka/withdraw.sol",
    "compiler": {
        "name": "solc",
        "version": "0.8.13+commit.abaa5c0e"
    },
    "functionHashes": {
        "MAX_PER_MINT()": "09d42b30",
        "MAX_SUPPLY()": "32cb6b0c",
        "PRICE()": "8d859f3e",
        "ROUND_NUMBER()": "4925044a",
        "approve(address,uint256)": "095ea7b3",
        "balanceOf(address)": "70a08231",
        "baseTokenURI()": "d547cfb7",
        "getApproved(uint256)": "081812fc",
        "isApprovedForAll(address,address)": "e985e9c5",
        "isSale()": "f8c1c186",
        "kakaAddr()": "e33b4b32",
        "mintNFTs(uint256)": "3b4b1381",
        "name()": "06fdde03",
        "owner()": "8da5cb5b",
        "ownerOf(uint256)": "6352211e",
        "renounceOwnership()": "715018a6",
        "reserveNFTs()": "144100c7",
        "safeTransferFrom(address,address,uint256)": "42842e0e",
        "safeTransferFrom(address,address,uint256,bytes)": "b88d4fde",
        "setApprovalForAll(address,bool)": "a22cb465",
        "setBaseURI(string)": "55f804b3",
        "setKakaTokenAddr(address)": "bd8f9e72",
        "setRoundNumber(uint256)": "fa4bb165",
        "startSale()": "b66a0e5d",
        "stopSale()": "e36b0b37",
        "supportsInterface(bytes4)": "01ffc9a7",
        "symbol()": "95d89b41",
        "tokenByIndex(uint256)": "4f6ccce7",
        "tokenOfOwnerByIndex(address,uint256)": "2f745c59",
        "tokenURI(uint256)": "c87b56dd",
        "tokensOfOwner(address)": "8462151c",
        "totalSupply()": "18160ddd",
        "transferFrom(address,address,uint256)": "23b872dd",
        "transferOwnership(address)": "f2fde38b",
        "withdraw()": "3ccfd60b"
    },
    "gasEstimates": {
        "creation": {
            "codeDepositCost": "1962800",
            "executionCost": "infinite",
            "totalCost": "infinite"
        },
        "external": {
            "MAX_PER_MINT()": "241",
            "MAX_SUPPLY()": "263",
            "PRICE()": "307",
            "ROUND_NUMBER()": "2362",
            "approve(address,uint256)": "infinite",
            "balanceOf(address)": "2635",
            "baseTokenURI()": "infinite",
            "getApproved(uint256)": "4783",
            "isApprovedForAll(address,address)": "infinite",
            "isSale()": "2426",
            "kakaAddr()": "2448",
            "mintNFTs(uint256)": "infinite",
            "name()": "infinite",
            "owner()": "2376",
            "ownerOf(uint256)": "2689",
            "renounceOwnership()": "28185",
            "reserveNFTs()": "infinite",
            "safeTransferFrom(address,address,uint256)": "infinite",
            "safeTransferFrom(address,address,uint256,bytes)": "infinite",
            "setApprovalForAll(address,bool)": "26743",
            "setBaseURI(string)": "infinite",
            "setKakaTokenAddr(address)": "26756",
            "setRoundNumber(uint256)": "24596",
            "startSale()": "28774",
            "stopSale()": "28692",
            "supportsInterface(bytes4)": "infinite",
            "symbol()": "infinite",
            "tokenByIndex(uint256)": "6804",
            "tokenOfOwnerByIndex(address,uint256)": "4976",
            "tokenURI(uint256)": "infinite",
            "tokensOfOwner(address)": "infinite",
            "totalSupply()": "2382",
            "transferFrom(address,address,uint256)": "infinite",
            "transferOwnership(address)": "28400",
            "withdraw()": "infinite"
        },
        "internal": {
            "_baseURI()": "infinite",
            "_mintSingleNFT()": "infinite"
        }
    }
}